{
  "_format": "hh-sol-artifact-1",
  "contractName": "ADGToken",
  "sourceName": "contracts/ADGToken.sol",
  "abi": [
    {
      "inputs": [
        {
          "internalType": "string",
          "name": "name",
          "type": "string"
        },
        {
          "internalType": "string",
          "name": "symbol",
          "type": "string"
        }
      ],
      "stateMutability": "nonpayable",
      "type": "constructor"
    },
    {
      "anonymous": false,
      "inputs": [
        {
          "indexed": false,
          "internalType": "uint256",
          "name": "id",
          "type": "uint256"
        },
        {
          "indexed": false,
          "internalType": "address",
          "name": "seller",
          "type": "address"
        },
        {
          "indexed": false,
          "internalType": "uint256",
          "name": "price",
          "type": "uint256"
        },
        {
          "indexed": false,
          "internalType": "string",
          "name": "nameOfItem",
          "type": "string"
        }
      ],
      "name": "AddedItem",
      "type": "event"
    },
    {
      "anonymous": false,
      "inputs": [
        {
          "indexed": true,
          "internalType": "address",
          "name": "owner",
          "type": "address"
        },
        {
          "indexed": true,
          "internalType": "address",
          "name": "approved",
          "type": "address"
        },
        {
          "indexed": true,
          "internalType": "uint256",
          "name": "tokenId",
          "type": "uint256"
        }
      ],
      "name": "Approval",
      "type": "event"
    },
    {
      "anonymous": false,
      "inputs": [
        {
          "indexed": true,
          "internalType": "address",
          "name": "owner",
          "type": "address"
        },
        {
          "indexed": true,
          "internalType": "address",
          "name": "operator",
          "type": "address"
        },
        {
          "indexed": false,
          "internalType": "bool",
          "name": "approved",
          "type": "bool"
        }
      ],
      "name": "ApprovalForAll",
      "type": "event"
    },
    {
      "anonymous": false,
      "inputs": [
        {
          "indexed": false,
          "internalType": "uint256",
          "name": "itemId",
          "type": "uint256"
        }
      ],
      "name": "DeletedItem",
      "type": "event"
    },
    {
      "anonymous": false,
      "inputs": [
        {
          "indexed": false,
          "internalType": "address",
          "name": "buyer",
          "type": "address"
        },
        {
          "indexed": false,
          "internalType": "uint256",
          "name": "itemId",
          "type": "uint256"
        }
      ],
      "name": "DisputeOpened",
      "type": "event"
    },
    {
      "anonymous": false,
      "inputs": [
        {
          "indexed": false,
          "internalType": "uint256",
          "name": "",
          "type": "uint256"
        }
      ],
      "name": "DuplicateItem",
      "type": "event"
    },
    {
      "anonymous": false,
      "inputs": [
        {
          "indexed": false,
          "internalType": "address",
          "name": "buyer",
          "type": "address"
        },
        {
          "indexed": false,
          "internalType": "uint256",
          "name": "amount",
          "type": "uint256"
        }
      ],
      "name": "FundsRefundedToBuyer",
      "type": "event"
    },
    {
      "anonymous": false,
      "inputs": [
        {
          "indexed": false,
          "internalType": "address",
          "name": "buyer",
          "type": "address"
        },
        {
          "indexed": false,
          "internalType": "uint256",
          "name": "itemId",
          "type": "uint256"
        }
      ],
      "name": "ItemDoesntExist",
      "type": "event"
    },
    {
      "anonymous": false,
      "inputs": [
        {
          "indexed": false,
          "internalType": "uint256",
          "name": "itemId",
          "type": "uint256"
        }
      ],
      "name": "ItemNotFound",
      "type": "event"
    },
    {
      "anonymous": false,
      "inputs": [
        {
          "indexed": false,
          "internalType": "uint256",
          "name": "itemId",
          "type": "uint256"
        }
      ],
      "name": "ItemRemoved",
      "type": "event"
    },
    {
      "anonymous": false,
      "inputs": [
        {
          "indexed": false,
          "internalType": "address",
          "name": "buyer",
          "type": "address"
        },
        {
          "indexed": false,
          "internalType": "uint256",
          "name": "itemId",
          "type": "uint256"
        }
      ],
      "name": "NFTMinted",
      "type": "event"
    },
    {
      "anonymous": false,
      "inputs": [
        {
          "indexed": false,
          "internalType": "address",
          "name": "sender",
          "type": "address"
        },
        {
          "indexed": false,
          "internalType": "uint256",
          "name": "itemId",
          "type": "uint256"
        }
      ],
      "name": "NotEnoughFundsSent",
      "type": "event"
    },
    {
      "anonymous": false,
      "inputs": [
        {
          "indexed": false,
          "internalType": "address",
          "name": "buyer",
          "type": "address"
        },
        {
          "indexed": false,
          "internalType": "uint256",
          "name": "itemId",
          "type": "uint256"
        }
      ],
      "name": "OrderIsPending",
      "type": "event"
    },
    {
      "anonymous": false,
      "inputs": [
        {
          "indexed": false,
          "internalType": "address",
          "name": "buyer",
          "type": "address"
        },
        {
          "indexed": false,
          "internalType": "uint256",
          "name": "itemId",
          "type": "uint256"
        }
      ],
      "name": "OrderNotFound",
      "type": "event"
    },
    {
      "anonymous": false,
      "inputs": [
        {
          "indexed": false,
          "internalType": "address",
          "name": "refundedAddress",
          "type": "address"
        },
        {
          "indexed": false,
          "internalType": "uint256",
          "name": "amount",
          "type": "uint256"
        }
      ],
      "name": "PartialRefundMade",
      "type": "event"
    },
    {
      "anonymous": false,
      "inputs": [
        {
          "indexed": false,
          "internalType": "address",
          "name": "refundedAddress",
          "type": "address"
        },
        {
          "indexed": false,
          "internalType": "uint256",
          "name": "amount",
          "type": "uint256"
        }
      ],
      "name": "RefundMade",
      "type": "event"
    },
    {
      "anonymous": false,
      "inputs": [
        {
          "indexed": false,
          "internalType": "address",
          "name": "seller",
          "type": "address"
        },
        {
          "indexed": false,
          "internalType": "uint256",
          "name": "price",
          "type": "uint256"
        }
      ],
      "name": "SellerPaid",
      "type": "event"
    },
    {
      "anonymous": false,
      "inputs": [
        {
          "indexed": false,
          "internalType": "address",
          "name": "buyer",
          "type": "address"
        },
        {
          "indexed": false,
          "internalType": "uint256",
          "name": "",
          "type": "uint256"
        }
      ],
      "name": "SetWantToBuy",
      "type": "event"
    },
    {
      "anonymous": false,
      "inputs": [
        {
          "indexed": true,
          "internalType": "address",
          "name": "from",
          "type": "address"
        },
        {
          "indexed": true,
          "internalType": "address",
          "name": "to",
          "type": "address"
        },
        {
          "indexed": true,
          "internalType": "uint256",
          "name": "tokenId",
          "type": "uint256"
        }
      ],
      "name": "Transfer",
      "type": "event"
    },
    {
      "inputs": [
        {
          "internalType": "address",
          "name": "seller",
          "type": "address"
        },
        {
          "internalType": "uint256",
          "name": "price",
          "type": "uint256"
        },
        {
          "internalType": "string",
          "name": "nameOfItem",
          "type": "string"
        }
      ],
      "name": "addItem",
      "outputs": [],
      "stateMutability": "nonpayable",
      "type": "function"
    },
    {
      "inputs": [
        {
          "internalType": "address",
          "name": "to",
          "type": "address"
        },
        {
          "internalType": "uint256",
          "name": "tokenId",
          "type": "uint256"
        }
      ],
      "name": "approve",
      "outputs": [],
      "stateMutability": "nonpayable",
      "type": "function"
    },
    {
      "inputs": [
        {
          "internalType": "address",
          "name": "owner",
          "type": "address"
        }
      ],
      "name": "balanceOf",
      "outputs": [
        {
          "internalType": "uint256",
          "name": "",
          "type": "uint256"
        }
      ],
      "stateMutability": "view",
      "type": "function"
    },
    {
      "inputs": [
        {
          "internalType": "address",
          "name": "seller",
          "type": "address"
        },
        {
          "internalType": "address",
          "name": "buyer",
          "type": "address"
        },
        {
          "internalType": "uint256",
          "name": "itemId",
          "type": "uint256"
        }
      ],
      "name": "botTryToConfirm",
      "outputs": [],
      "stateMutability": "nonpayable",
      "type": "function"
    },
    {
      "inputs": [
        {
          "internalType": "uint256",
          "name": "tokenId",
          "type": "uint256"
        }
      ],
      "name": "getApproved",
      "outputs": [
        {
          "internalType": "address",
          "name": "",
          "type": "address"
        }
      ],
      "stateMutability": "view",
      "type": "function"
    },
    {
      "inputs": [],
      "name": "getBalance",
      "outputs": [
        {
          "internalType": "uint256",
          "name": "",
          "type": "uint256"
        }
      ],
      "stateMutability": "view",
      "type": "function"
    },
    {
      "inputs": [
        {
          "internalType": "uint256",
          "name": "itemId",
          "type": "uint256"
        }
      ],
      "name": "getItem",
      "outputs": [
        {
          "internalType": "address",
          "name": "",
          "type": "address"
        },
        {
          "internalType": "uint256",
          "name": "",
          "type": "uint256"
        },
        {
          "internalType": "string",
          "name": "",
          "type": "string"
        },
        {
          "internalType": "bool",
          "name": "",
          "type": "bool"
        }
      ],
      "stateMutability": "view",
      "type": "function"
    },
    {
      "inputs": [
        {
          "internalType": "address",
          "name": "buyer",
          "type": "address"
        },
        {
          "internalType": "uint256",
          "name": "itemId",
          "type": "uint256"
        }
      ],
      "name": "getOrder",
      "outputs": [
        {
          "internalType": "uint256",
          "name": "",
          "type": "uint256"
        },
        {
          "internalType": "uint256",
          "name": "",
          "type": "uint256"
        },
        {
          "internalType": "enum ADGToken.OrderStatus",
          "name": "",
          "type": "uint8"
        }
      ],
      "stateMutability": "view",
      "type": "function"
    },
    {
      "inputs": [
        {
          "internalType": "address",
          "name": "owner",
          "type": "address"
        },
        {
          "internalType": "address",
          "name": "operator",
          "type": "address"
        }
      ],
      "name": "isApprovedForAll",
      "outputs": [
        {
          "internalType": "bool",
          "name": "",
          "type": "bool"
        }
      ],
      "stateMutability": "view",
      "type": "function"
    },
    {
      "inputs": [],
      "name": "itemCounter",
      "outputs": [
        {
          "internalType": "uint256",
          "name": "",
          "type": "uint256"
        }
      ],
      "stateMutability": "view",
      "type": "function"
    },
    {
      "inputs": [
        {
          "internalType": "address",
          "name": "to",
          "type": "address"
        },
        {
          "internalType": "uint256",
          "name": "tokenId",
          "type": "uint256"
        }
      ],
      "name": "mintNft",
      "outputs": [],
      "stateMutability": "nonpayable",
      "type": "function"
    },
    {
      "inputs": [],
      "name": "name",
      "outputs": [
        {
          "internalType": "string",
          "name": "",
          "type": "string"
        }
      ],
      "stateMutability": "view",
      "type": "function"
    },
    {
      "inputs": [
        {
          "internalType": "address",
          "name": "buyer",
          "type": "address"
        },
        {
          "internalType": "uint256",
          "name": "itemId",
          "type": "uint256"
        }
      ],
      "name": "openDispute",
      "outputs": [],
      "stateMutability": "nonpayable",
      "type": "function"
    },
    {
      "inputs": [],
      "name": "owner",
      "outputs": [
        {
          "internalType": "address",
          "name": "",
          "type": "address"
        }
      ],
      "stateMutability": "view",
      "type": "function"
    },
    {
      "inputs": [
        {
          "internalType": "uint256",
          "name": "tokenId",
          "type": "uint256"
        }
      ],
      "name": "ownerOf",
      "outputs": [
        {
          "internalType": "address",
          "name": "",
          "type": "address"
        }
      ],
      "stateMutability": "view",
      "type": "function"
    },
    {
      "inputs": [
        {
          "internalType": "uint256",
          "name": "itemId",
          "type": "uint256"
        }
      ],
      "name": "removeItem",
      "outputs": [],
      "stateMutability": "nonpayable",
      "type": "function"
    },
    {
      "inputs": [
        {
          "internalType": "address",
          "name": "buyer",
          "type": "address"
        },
        {
          "internalType": "uint256",
          "name": "itemId",
          "type": "uint256"
        }
      ],
      "name": "resolveDisputeForBuyer",
      "outputs": [],
      "stateMutability": "nonpayable",
      "type": "function"
    },
    {
      "inputs": [
        {
          "internalType": "address",
          "name": "buyer",
          "type": "address"
        },
        {
          "internalType": "uint256",
          "name": "itemId",
          "type": "uint256"
        }
      ],
      "name": "resolveDisputeForSeller",
      "outputs": [],
      "stateMutability": "nonpayable",
      "type": "function"
    },
    {
      "inputs": [
        {
          "internalType": "address",
          "name": "from",
          "type": "address"
        },
        {
          "internalType": "address",
          "name": "to",
          "type": "address"
        },
        {
          "internalType": "uint256",
          "name": "tokenId",
          "type": "uint256"
        }
      ],
      "name": "safeTransferFrom",
      "outputs": [],
      "stateMutability": "nonpayable",
      "type": "function"
    },
    {
      "inputs": [
        {
          "internalType": "address",
          "name": "from",
          "type": "address"
        },
        {
          "internalType": "address",
          "name": "to",
          "type": "address"
        },
        {
          "internalType": "uint256",
          "name": "tokenId",
          "type": "uint256"
        },
        {
          "internalType": "bytes",
          "name": "data",
          "type": "bytes"
        }
      ],
      "name": "safeTransferFrom",
      "outputs": [],
      "stateMutability": "nonpayable",
      "type": "function"
    },
    {
      "inputs": [
        {
          "internalType": "address",
          "name": "buyer",
          "type": "address"
        },
        {
          "internalType": "uint256",
          "name": "itemId",
          "type": "uint256"
        }
      ],
      "name": "sellerTryToConfirm",
      "outputs": [],
      "stateMutability": "nonpayable",
      "type": "function"
    },
    {
      "inputs": [
        {
          "internalType": "address",
          "name": "operator",
          "type": "address"
        },
        {
          "internalType": "bool",
          "name": "approved",
          "type": "bool"
        }
      ],
      "name": "setApprovalForAll",
      "outputs": [],
      "stateMutability": "nonpayable",
      "type": "function"
    },
    {
      "inputs": [
        {
          "internalType": "address",
          "name": "buyer",
          "type": "address"
        },
        {
          "internalType": "uint256",
          "name": "itemId",
          "type": "uint256"
        }
      ],
      "name": "setWantToBuyForUser",
      "outputs": [],
      "stateMutability": "nonpayable",
      "type": "function"
    },
    {
      "inputs": [
        {
          "internalType": "bytes4",
          "name": "interfaceId",
          "type": "bytes4"
        }
      ],
      "name": "supportsInterface",
      "outputs": [
        {
          "internalType": "bool",
          "name": "",
          "type": "bool"
        }
      ],
      "stateMutability": "view",
      "type": "function"
    },
    {
      "inputs": [],
      "name": "symbol",
      "outputs": [
        {
          "internalType": "string",
          "name": "",
          "type": "string"
        }
      ],
      "stateMutability": "view",
      "type": "function"
    },
    {
      "inputs": [
        {
          "internalType": "uint256",
          "name": "_tokenId",
          "type": "uint256"
        }
      ],
      "name": "tokenURI",
      "outputs": [
        {
          "internalType": "string",
          "name": "",
          "type": "string"
        }
      ],
      "stateMutability": "view",
      "type": "function"
    },
    {
      "inputs": [
        {
          "internalType": "address",
          "name": "from",
          "type": "address"
        },
        {
          "internalType": "address",
          "name": "to",
          "type": "address"
        },
        {
          "internalType": "uint256",
          "name": "tokenId",
          "type": "uint256"
        }
      ],
      "name": "transferFrom",
      "outputs": [],
      "stateMutability": "nonpayable",
      "type": "function"
    },
    {
      "stateMutability": "payable",
      "type": "receive"
    }
  ],
  "bytecode": "0x608060405261012c600d553480156200001757600080fd5b5060405162005d4838038062005d4883398181016040528101906200003d919062000249565b8181816000908162000050919062000519565b50806001908162000062919062000519565b50505033600860006101000a81548173ffffffffffffffffffffffffffffffffffffffff021916908373ffffffffffffffffffffffffffffffffffffffff1602179055506000600781905550505062000600565b6000604051905090565b600080fd5b600080fd5b600080fd5b600080fd5b6000601f19601f8301169050919050565b7f4e487b7100000000000000000000000000000000000000000000000000000000600052604160045260246000fd5b6200011f82620000d4565b810181811067ffffffffffffffff82111715620001415762000140620000e5565b5b80604052505050565b600062000156620000b6565b905062000164828262000114565b919050565b600067ffffffffffffffff821115620001875762000186620000e5565b5b6200019282620000d4565b9050602081019050919050565b60005b83811015620001bf578082015181840152602081019050620001a2565b60008484015250505050565b6000620001e2620001dc8462000169565b6200014a565b905082815260208101848484011115620002015762000200620000cf565b5b6200020e8482856200019f565b509392505050565b600082601f8301126200022e576200022d620000ca565b5b815162000240848260208601620001cb565b91505092915050565b60008060408385031215620002635762000262620000c0565b5b600083015167ffffffffffffffff811115620002845762000283620000c5565b5b620002928582860162000216565b925050602083015167ffffffffffffffff811115620002b657620002b5620000c5565b5b620002c48582860162000216565b9150509250929050565b600081519050919050565b7f4e487b7100000000000000000000000000000000000000000000000000000000600052602260045260246000fd5b600060028204905060018216806200032157607f821691505b602082108103620003375762000336620002d9565b5b50919050565b60008190508160005260206000209050919050565b60006020601f8301049050919050565b600082821b905092915050565b600060088302620003a17fffffffffffffffffffffffffffffffffffffffffffffffffffffffffffffffff8262000362565b620003ad868362000362565b95508019841693508086168417925050509392505050565b6000819050919050565b6000819050919050565b6000620003fa620003f4620003ee84620003c5565b620003cf565b620003c5565b9050919050565b6000819050919050565b6200041683620003d9565b6200042e620004258262000401565b8484546200036f565b825550505050565b600090565b6200044562000436565b620004528184846200040b565b505050565b5b818110156200047a576200046e6000826200043b565b60018101905062000458565b5050565b601f821115620004c95762000493816200033d565b6200049e8462000352565b81016020851015620004ae578190505b620004c6620004bd8562000352565b83018262000457565b50505b505050565b600082821c905092915050565b6000620004ee60001984600802620004ce565b1980831691505092915050565b6000620005098383620004db565b9150826002028217905092915050565b6200052482620002ce565b67ffffffffffffffff81111562000540576200053f620000e5565b5b6200054c825462000308565b620005598282856200047e565b600060209050601f8311600181146200059157600084156200057c578287015190505b620005888582620004fb565b865550620005f8565b601f198416620005a1866200033d565b60005b82811015620005cb57848901518255600182019150602085019450602081019050620005a4565b86831015620005eb5784890151620005e7601f891682620004db565b8355505b6001600288020188555050505b505050505050565b61573880620006106000396000f3fe6080604052600436106101a05760003560e01c80636d6d00ed116100ec578063b88d4fde1161008a578063e985e9c511610064578063e985e9c51461092f578063edb258411461096c578063f37d0f0d146109ab578063f85c5a8a146109d4576104f6565b8063b88d4fde146108a0578063c87b56dd146108c9578063d1194e2b14610906576104f6565b8063881f5174116100c6578063881f5174146107f85780638da5cb5b1461082157806395d89b411461084c578063a22cb46514610877576104f6565b80636d6d00ed1461076757806370a082311461079257806371329171146107cf576104f6565b806313feac70116101595780633315948b116101335780633315948b146106af57806342842e0e146106d85780636352211e14610701578063642975ea1461073e576104f6565b806313feac701461061d57806323b872dd146106465780633129e7731461066f576104f6565b806301ffc9a7146104fb57806306fdde0314610538578063081812fc14610563578063095ea7b3146105a057806312065fe0146105c957806313b6568b146105f4576104f6565b366104f6576000600a60003373ffffffffffffffffffffffffffffffffffffffff1673ffffffffffffffffffffffffffffffffffffffff168152602001908152602001600020600001549050600b6000828152602001908152602001600020600101543410156102c8577f542c1114a9f269d85fda30f1a50bb626ab3565345c8cb0bb34260e7f89ba968a338260405161023b929190613c9d565b60405180910390a13373ffffffffffffffffffffffffffffffffffffffff166108fc349081150290604051600060405180830381858888f19350505050158015610289573d6000803e3d6000fd5b507f6c7e671ec35e723fdd21e81a2b98109fd74878e3233ac1c04dec9a61864c1cbd33346040516102bb929190613c9d565b60405180910390a16104f4565b6000600b600083815260200190815260200160002060010154346102ec9190613cf5565b905060008114610377573373ffffffffffffffffffffffffffffffffffffffff166108fc829081150290604051600060405180830381858888f1935050505015801561033c573d6000803e3d6000fd5b507f578224d90926dc164e3780f7a4db054e5851e67d629fd2c2f87d62ce413c063b338260405161036e929190613c9d565b60405180910390a15b600c60003373ffffffffffffffffffffffffffffffffffffffff1673ffffffffffffffffffffffffffffffffffffffff1681526020019081526020016000206040518060600160405280848152602001428152602001600060038111156103e1576103e0613d29565b5b8152509080600181540180825580915050600190039060005260206000209060030201600090919091909150600082015181600001556020820151816001015560408201518160020160006101000a81548160ff0219169083600381111561044c5761044b613d29565b5b021790555050507fe615eab5f27a199190d8c5cc0adeb684b7b449c82f1c87a3c96139d0923651bd3383604051610484929190613c9d565b60405180910390a16000600b600084815260200190815260200160002060030160006101000a81548160ff0219169083151502179055507fdbb0cb4302e433d3fdb23b6960e8145f8c95d1cf71f569c5650e5e4302606e09826040516104ea9190613d58565b60405180910390a1505b005b600080fd5b34801561050757600080fd5b50610522600480360381019061051d9190613ddf565b6109fd565b60405161052f9190613e27565b60405180910390f35b34801561054457600080fd5b5061054d610adf565b60405161055a9190613ed2565b60405180910390f35b34801561056f57600080fd5b5061058a60048036038101906105859190613f20565b610b71565b6040516105979190613f4d565b60405180910390f35b3480156105ac57600080fd5b506105c760048036038101906105c29190613f94565b610bb7565b005b3480156105d557600080fd5b506105de610cce565b6040516105eb9190613d58565b60405180910390f35b34801561060057600080fd5b5061061b60048036038101906106169190613f94565b610d30565b005b34801561062957600080fd5b50610644600480360381019061063f9190613f94565b610eb3565b005b34801561065257600080fd5b5061066d60048036038101906106689190613fd4565b6112e6565b005b34801561067b57600080fd5b5061069660048036038101906106919190613f20565b611346565b6040516106a69493929190614027565b60405180910390f35b3480156106bb57600080fd5b506106d660048036038101906106d19190613f94565b6114fa565b005b3480156106e457600080fd5b506106ff60048036038101906106fa9190613fd4565b61173e565b005b34801561070d57600080fd5b5061072860048036038101906107239190613f20565b61175e565b6040516107359190613f4d565b60405180910390f35b34801561074a57600080fd5b5061076560048036038101906107609190613f94565b6117e4565b005b34801561077357600080fd5b5061077c611b91565b6040516107899190613d58565b60405180910390f35b34801561079e57600080fd5b506107b960048036038101906107b49190614073565b611b97565b6040516107c69190613d58565b60405180910390f35b3480156107db57600080fd5b506107f660048036038101906107f19190613f20565b611c4e565b005b34801561080457600080fd5b5061081f600480360381019061081a9190613fd4565b611d40565b005b34801561082d57600080fd5b50610836611daa565b6040516108439190613f4d565b60405180910390f35b34801561085857600080fd5b50610861611dd0565b60405161086e9190613ed2565b60405180910390f35b34801561088357600080fd5b5061089e600480360381019061089991906140cc565b611e62565b005b3480156108ac57600080fd5b506108c760048036038101906108c29190614241565b611e78565b005b3480156108d557600080fd5b506108f060048036038101906108eb9190613f20565b611eda565b6040516108fd9190613ed2565b60405180910390f35b34801561091257600080fd5b5061092d60048036038101906109289190613f94565b611fff565b005b34801561093b57600080fd5b50610956600480360381019061095191906142c4565b612079565b6040516109639190613e27565b60405180910390f35b34801561097857600080fd5b50610993600480360381019061098e9190613f94565b61210d565b6040516109a29392919061434c565b60405180910390f35b3480156109b757600080fd5b506109d260048036038101906109cd9190613f94565b612322565b005b3480156109e057600080fd5b506109fb60048036038101906109f69190614424565b612331565b005b60007f80ac58cd000000000000000000000000000000000000000000000000000000007bffffffffffffffffffffffffffffffffffffffffffffffffffffffff1916827bffffffffffffffffffffffffffffffffffffffffffffffffffffffff19161480610ac857507f5b5e139f000000000000000000000000000000000000000000000000000000007bffffffffffffffffffffffffffffffffffffffffffffffffffffffff1916827bffffffffffffffffffffffffffffffffffffffffffffffffffffffff1916145b80610ad85750610ad7826124c6565b5b9050919050565b606060008054610aee906144c2565b80601f0160208091040260200160405190810160405280929190818152602001828054610b1a906144c2565b8015610b675780601f10610b3c57610100808354040283529160200191610b67565b820191906000526020600020905b815481529060010190602001808311610b4a57829003601f168201915b5050505050905090565b6000610b7c82612530565b6004600083815260200190815260200160002060009054906101000a900473ffffffffffffffffffffffffffffffffffffffff169050919050565b6000610bc28261175e565b90508073ffffffffffffffffffffffffffffffffffffffff168373ffffffffffffffffffffffffffffffffffffffff1603610c32576040517f08c379a0000000000000000000000000000000000000000000000000000000008152600401610c2990614565565b60405180910390fd5b8073ffffffffffffffffffffffffffffffffffffffff16610c5161257b565b73ffffffffffffffffffffffffffffffffffffffff161480610c805750610c7f81610c7a61257b565b612079565b5b610cbf576040517f08c379a0000000000000000000000000000000000000000000000000000000008152600401610cb6906145f7565b60405180910390fd5b610cc98383612583565b505050565b6000600860009054906101000a900473ffffffffffffffffffffffffffffffffffffffff1673ffffffffffffffffffffffffffffffffffffffff163373ffffffffffffffffffffffffffffffffffffffff1614610d2a57600080fd5b47905090565b600860009054906101000a900473ffffffffffffffffffffffffffffffffffffffff1673ffffffffffffffffffffffffffffffffffffffff163373ffffffffffffffffffffffffffffffffffffffff1614610d8a57600080fd5b600b600082815260200190815260200160002060030160009054906101000a900460ff1615610e7557604051806040016040528082815260200160011515815250600a60008473ffffffffffffffffffffffffffffffffffffffff1673ffffffffffffffffffffffffffffffffffffffff1681526020019081526020016000206000820151816000015560208201518160010160006101000a81548160ff0219169083151502179055509050507f15af245198eaf5b10d702f883425d52d9611b368df15da2089cc1deb9c4f997a8282604051610e68929190613c9d565b60405180910390a1610eaf565b7f41dec738b0bebde46503db72bb893e97f0229da589f61b0c6a7cbb363087b3d38282604051610ea6929190613c9d565b60405180910390a15b5050565b600860009054906101000a900473ffffffffffffffffffffffffffffffffffffffff1673ffffffffffffffffffffffffffffffffffffffff163373ffffffffffffffffffffffffffffffffffffffff1614610f0d57600080fd5b60005b600c60008473ffffffffffffffffffffffffffffffffffffffff1673ffffffffffffffffffffffffffffffffffffffff168152602001908152602001600020805490508110156112a85781600c60008573ffffffffffffffffffffffffffffffffffffffff1673ffffffffffffffffffffffffffffffffffffffff1681526020019081526020016000208281548110610fac57610fab614617565b5b906000526020600020906003020160000154036112955760026003811115610fd757610fd6613d29565b5b600c60008573ffffffffffffffffffffffffffffffffffffffff1673ffffffffffffffffffffffffffffffffffffffff168152602001908152602001600020828154811061102857611027614617565b5b906000526020600020906003020160020160009054906101000a900460ff16600381111561105957611058613d29565b5b14611099576040517f08c379a0000000000000000000000000000000000000000000000000000000008152600401611090906146b8565b60405180910390fd5b6003600c60008573ffffffffffffffffffffffffffffffffffffffff1673ffffffffffffffffffffffffffffffffffffffff16815260200190815260200160002082815481106110ec576110eb614617565b5b906000526020600020906003020160020160006101000a81548160ff0219169083600381111561111f5761111e613d29565b5b02179055508273ffffffffffffffffffffffffffffffffffffffff166108fc600b6000600c60008873ffffffffffffffffffffffffffffffffffffffff1673ffffffffffffffffffffffffffffffffffffffff168152602001908152602001600020858154811061119357611192614617565b5b9060005260206000209060030201600001548152602001908152602001600020600101549081150290604051600060405180830381858888f193505050501580156111e2573d6000803e3d6000fd5b507fb21ba955f38dd73148bb89c8cdffed6331374a17eb6823cb9b6a9714feb602af83600b6000600c60008873ffffffffffffffffffffffffffffffffffffffff1673ffffffffffffffffffffffffffffffffffffffff168152602001908152602001600020858154811061125a57611259614617565b5b90600052602060002090600302016000015481526020019081526020016000206001015460405161128c929190613c9d565b60405180910390a15b80806112a0906146d8565b915050610f10565b507f69f019efe5f581108e4063ef7158605f3cc5036390575e6d56d1a0dc2f722c6a82826040516112da929190613c9d565b60405180910390a15050565b6112f76112f161257b565b8261263c565b611336576040517f08c379a000000000000000000000000000000000000000000000000000000000815260040161132d90614792565b60405180910390fd5b6113418383836126d1565b505050565b60008060606000600860009054906101000a900473ffffffffffffffffffffffffffffffffffffffff1673ffffffffffffffffffffffffffffffffffffffff163373ffffffffffffffffffffffffffffffffffffffff16146113a757600080fd5b6000600b60008781526020019081526020016000206040518060800160405290816000820160009054906101000a900473ffffffffffffffffffffffffffffffffffffffff1673ffffffffffffffffffffffffffffffffffffffff1673ffffffffffffffffffffffffffffffffffffffff16815260200160018201548152602001600282018054611437906144c2565b80601f0160208091040260200160405190810160405280929190818152602001828054611463906144c2565b80156114b05780601f10611485576101008083540402835291602001916114b0565b820191906000526020600020905b81548152906001019060200180831161149357829003601f168201915b505050505081526020016003820160009054906101000a900460ff161515151581525050905080600001518160200151826040015183606001519450945094509450509193509193565b600860009054906101000a900473ffffffffffffffffffffffffffffffffffffffff1673ffffffffffffffffffffffffffffffffffffffff163373ffffffffffffffffffffffffffffffffffffffff161461155457600080fd5b60005b600c60008473ffffffffffffffffffffffffffffffffffffffff1673ffffffffffffffffffffffffffffffffffffffff168152602001908152602001600020805490508110156117005781600c60008573ffffffffffffffffffffffffffffffffffffffff1673ffffffffffffffffffffffffffffffffffffffff16815260200190815260200160002082815481106115f3576115f2614617565b5b906000526020600020906003020160000154036116ed576002600381111561161e5761161d613d29565b5b600c60008573ffffffffffffffffffffffffffffffffffffffff1673ffffffffffffffffffffffffffffffffffffffff168152602001908152602001600020828154811061166f5761166e614617565b5b906000526020600020906003020160020160009054906101000a900460ff1660038111156116a05761169f613d29565b5b146116e0576040517f08c379a00000000000000000000000000000000000000000000000000000000081526004016116d7906146b8565b60405180910390fd5b6116ec838260016129ca565b5b80806116f8906146d8565b915050611557565b507f69f019efe5f581108e4063ef7158605f3cc5036390575e6d56d1a0dc2f722c6a8282604051611732929190613c9d565b60405180910390a15050565b61175983838360405180602001604052806000815250611e78565b505050565b60008061176a83612bdc565b9050600073ffffffffffffffffffffffffffffffffffffffff168173ffffffffffffffffffffffffffffffffffffffff16036117db576040517f08c379a00000000000000000000000000000000000000000000000000000000081526004016117d2906147fe565b60405180910390fd5b80915050919050565b600860009054906101000a900473ffffffffffffffffffffffffffffffffffffffff1673ffffffffffffffffffffffffffffffffffffffff163373ffffffffffffffffffffffffffffffffffffffff161461183e57600080fd5b60005b600c60008473ffffffffffffffffffffffffffffffffffffffff1673ffffffffffffffffffffffffffffffffffffffff16815260200190815260200160002080549050811015611b535781600c60008573ffffffffffffffffffffffffffffffffffffffff1673ffffffffffffffffffffffffffffffffffffffff16815260200190815260200160002082815481106118dd576118dc614617565b5b90600052602060002090600302016000015403611b40576000600381111561190857611907613d29565b5b600c60008573ffffffffffffffffffffffffffffffffffffffff1673ffffffffffffffffffffffffffffffffffffffff168152602001908152602001600020828154811061195957611958614617565b5b906000526020600020906003020160020160009054906101000a900460ff16600381111561198a57611989613d29565b5b146119ca576040517f08c379a00000000000000000000000000000000000000000000000000000000081526004016119c19061486a565b60405180910390fd5b600d5442600c60008673ffffffffffffffffffffffffffffffffffffffff1673ffffffffffffffffffffffffffffffffffffffff1681526020019081526020016000208381548110611a1f57611a1e614617565b5b906000526020600020906003020160010154611a3b9190613cf5565b10611a7b576040517f08c379a0000000000000000000000000000000000000000000000000000000008152600401611a72906148fc565b60405180910390fd5b6002600c60008573ffffffffffffffffffffffffffffffffffffffff1673ffffffffffffffffffffffffffffffffffffffff1681526020019081526020016000208281548110611ace57611acd614617565b5b906000526020600020906003020160020160006101000a81548160ff02191690836003811115611b0157611b00613d29565b5b02179055507f67345f5ad4033a66dd50ab3c77094ee8f03aa856e8ceb7e1a435b956107c7b9f8383604051611b37929190613c9d565b60405180910390a15b8080611b4b906146d8565b915050611841565b507f69f019efe5f581108e4063ef7158605f3cc5036390575e6d56d1a0dc2f722c6a8282604051611b85929190613c9d565b60405180910390a15050565b60075481565b60008073ffffffffffffffffffffffffffffffffffffffff168273ffffffffffffffffffffffffffffffffffffffff1603611c07576040517f08c379a0000000000000000000000000000000000000000000000000000000008152600401611bfe9061498e565b60405180910390fd5b600360008373ffffffffffffffffffffffffffffffffffffffff1673ffffffffffffffffffffffffffffffffffffffff168152602001908152602001600020549050919050565b600860009054906101000a900473ffffffffffffffffffffffffffffffffffffffff1673ffffffffffffffffffffffffffffffffffffffff163373ffffffffffffffffffffffffffffffffffffffff1614611ca857600080fd5b600b600082815260200190815260200160002060030160009054906101000a900460ff1615611d05576000600b600083815260200190815260200160002060030160006101000a81548160ff021916908315150217905550611d3d565b7f1910c89791ea7d44dab40e3da2e8bf0aa204ec8c3f76a3ee5ba90f409de6221881604051611d349190613d58565b60405180910390a15b50565b600860009054906101000a900473ffffffffffffffffffffffffffffffffffffffff1673ffffffffffffffffffffffffffffffffffffffff163373ffffffffffffffffffffffffffffffffffffffff1614611d9a57600080fd5b611da5838383612c19565b505050565b600860009054906101000a900473ffffffffffffffffffffffffffffffffffffffff1681565b606060018054611ddf906144c2565b80601f0160208091040260200160405190810160405280929190818152602001828054611e0b906144c2565b8015611e585780601f10611e2d57610100808354040283529160200191611e58565b820191906000526020600020905b815481529060010190602001808311611e3b57829003601f168201915b5050505050905090565b611e74611e6d61257b565b8383612fc1565b5050565b611e89611e8361257b565b8361263c565b611ec8576040517f08c379a0000000000000000000000000000000000000000000000000000000008152600401611ebf90614792565b60405180910390fd5b611ed48484848461312d565b50505050565b6060611ee582613189565b611f24576040517f08c379a0000000000000000000000000000000000000000000000000000000008152600401611f1b90614a20565b60405180910390fd5b611fd9600b6000848152602001908152602001600020600201611f94600b600086815260200190815260200160002060000160009054906101000a900473ffffffffffffffffffffffffffffffffffffffff1673ffffffffffffffffffffffffffffffffffffffff1660146131ca565b611fb3600b600087815260200190815260200160002060010154613406565b604051602001611fc593929190614c44565b6040516020818303038152906040526134d4565b604051602001611fe99190614ced565b6040516020818303038152906040529050919050565b600860009054906101000a900473ffffffffffffffffffffffffffffffffffffffff1673ffffffffffffffffffffffffffffffffffffffff163373ffffffffffffffffffffffffffffffffffffffff161461205957600080fd5b6120638282613637565b6120758161207083611eda565b613655565b5050565b6000600560008473ffffffffffffffffffffffffffffffffffffffff1673ffffffffffffffffffffffffffffffffffffffff16815260200190815260200160002060008373ffffffffffffffffffffffffffffffffffffffff1673ffffffffffffffffffffffffffffffffffffffff16815260200190815260200160002060009054906101000a900460ff16905092915050565b6000806000600860009054906101000a900473ffffffffffffffffffffffffffffffffffffffff1673ffffffffffffffffffffffffffffffffffffffff163373ffffffffffffffffffffffffffffffffffffffff161461216c57600080fd5b60005b600c60008773ffffffffffffffffffffffffffffffffffffffff1673ffffffffffffffffffffffffffffffffffffffff1681526020019081526020016000208054905081101561230e5784600c60008873ffffffffffffffffffffffffffffffffffffffff1673ffffffffffffffffffffffffffffffffffffffff168152602001908152602001600020828154811061220b5761220a614617565b5b906000526020600020906003020160000154036122fb576000600c60008873ffffffffffffffffffffffffffffffffffffffff1673ffffffffffffffffffffffffffffffffffffffff168152602001908152602001600020828154811061227557612274614617565b5b906000526020600020906003020160405180606001604052908160008201548152602001600182015481526020016002820160009054906101000a900460ff1660038111156122c7576122c6613d29565b5b60038111156122d9576122d8613d29565b5b815250509050806000015181602001518260400151945094509450505061231b565b8080612306906146d8565b91505061216f565b5060008060009250925092505b9250925092565b61232d338383612c19565b5050565b600860009054906101000a900473ffffffffffffffffffffffffffffffffffffffff1673ffffffffffffffffffffffffffffffffffffffff163373ffffffffffffffffffffffffffffffffffffffff161461238b57600080fd5b60016007600082825461239e9190614d0f565b925050819055506000600754905060405180608001604052808573ffffffffffffffffffffffffffffffffffffffff16815260200184815260200183815260200160011515815250600b600083815260200190815260200160002060008201518160000160006101000a81548173ffffffffffffffffffffffffffffffffffffffff021916908373ffffffffffffffffffffffffffffffffffffffff16021790555060208201518160010155604082015181600201908161245f9190614eda565b5060608201518160030160006101000a81548160ff0219169083151502179055509050507f54638f07065add5f40c920408dac3d4d93506b65a167d9f941fa7fe5f8cc6c76818585856040516124b89493929190614fac565b60405180910390a150505050565b60007f01ffc9a7000000000000000000000000000000000000000000000000000000007bffffffffffffffffffffffffffffffffffffffffffffffffffffffff1916827bffffffffffffffffffffffffffffffffffffffffffffffffffffffff1916149050919050565b61253981613189565b612578576040517f08c379a000000000000000000000000000000000000000000000000000000000815260040161256f906147fe565b60405180910390fd5b50565b600033905090565b816004600083815260200190815260200160002060006101000a81548173ffffffffffffffffffffffffffffffffffffffff021916908373ffffffffffffffffffffffffffffffffffffffff160217905550808273ffffffffffffffffffffffffffffffffffffffff166125f68361175e565b73ffffffffffffffffffffffffffffffffffffffff167f8c5be1e5ebec7d5bd14f71427d1e84f3dd0314c0f7b2291e5b200ac8c7c3b92560405160405180910390a45050565b6000806126488361175e565b90508073ffffffffffffffffffffffffffffffffffffffff168473ffffffffffffffffffffffffffffffffffffffff16148061268a57506126898185612079565b5b806126c857508373ffffffffffffffffffffffffffffffffffffffff166126b084610b71565b73ffffffffffffffffffffffffffffffffffffffff16145b91505092915050565b8273ffffffffffffffffffffffffffffffffffffffff166126f18261175e565b73ffffffffffffffffffffffffffffffffffffffff1614612747576040517f08c379a000000000000000000000000000000000000000000000000000000000815260040161273e9061506a565b60405180910390fd5b600073ffffffffffffffffffffffffffffffffffffffff168273ffffffffffffffffffffffffffffffffffffffff16036127b6576040517f08c379a00000000000000000000000000000000000000000000000000000000081526004016127ad906150fc565b60405180910390fd5b6127c383838360016136c2565b8273ffffffffffffffffffffffffffffffffffffffff166127e38261175e565b73ffffffffffffffffffffffffffffffffffffffff1614612839576040517f08c379a00000000000000000000000000000000000000000000000000000000081526004016128309061506a565b60405180910390fd5b6004600082815260200190815260200160002060006101000a81549073ffffffffffffffffffffffffffffffffffffffff02191690556001600360008573ffffffffffffffffffffffffffffffffffffffff1673ffffffffffffffffffffffffffffffffffffffff168152602001908152602001600020600082825403925050819055506001600360008473ffffffffffffffffffffffffffffffffffffffff1673ffffffffffffffffffffffffffffffffffffffff16815260200190815260200160002060008282540192505081905550816002600083815260200190815260200160002060006101000a81548173ffffffffffffffffffffffffffffffffffffffff021916908373ffffffffffffffffffffffffffffffffffffffff160217905550808273ffffffffffffffffffffffffffffffffffffffff168473ffffffffffffffffffffffffffffffffffffffff167fddf252ad1be2c89b69c2b068fc378daa952ba7f163c4a11628f55a4df523b3ef60405160405180910390a46129c583838360016136c8565b505050565b6000600c60008573ffffffffffffffffffffffffffffffffffffffff1673ffffffffffffffffffffffffffffffffffffffff1681526020019081526020016000208381548110612a1d57612a1c614617565b5b90600052602060002090600302016000015490506000600b60008381526020019081526020016000206001015490506000600b600084815260200190815260200160002060000160009054906101000a900473ffffffffffffffffffffffffffffffffffffffff16905083600c60008873ffffffffffffffffffffffffffffffffffffffff1673ffffffffffffffffffffffffffffffffffffffff1681526020019081526020016000208681548110612ad957612ad8614617565b5b906000526020600020906003020160020160006101000a81548160ff02191690836003811115612b0c57612b0b613d29565b5b02179055508073ffffffffffffffffffffffffffffffffffffffff166108fc839081150290604051600060405180830381858888f19350505050158015612b57573d6000803e3d6000fd5b507fcb4a9094da4df77fb2c0dbaa5047660b1237e61d82a02176c1be74ca757f25318183604051612b89929190613c9d565b60405180910390a1612b9b8684611fff565b7f4cc0a9c4a99ddc700de1af2c9f916a7cbfdb71f14801ccff94061ad1ef8a80408684604051612bcc929190613c9d565b60405180910390a1505050505050565b60006002600083815260200190815260200160002060009054906101000a900473ffffffffffffffffffffffffffffffffffffffff169050919050565b60005b600c60008473ffffffffffffffffffffffffffffffffffffffff1673ffffffffffffffffffffffffffffffffffffffff16815260200190815260200160002080549050811015612f815781600c60008573ffffffffffffffffffffffffffffffffffffffff1673ffffffffffffffffffffffffffffffffffffffff1681526020019081526020016000208281548110612cb857612cb7614617565b5b90600052602060002090600302016000015403612f6e5760006003811115612ce357612ce2613d29565b5b600c60008573ffffffffffffffffffffffffffffffffffffffff1673ffffffffffffffffffffffffffffffffffffffff1681526020019081526020016000208281548110612d3457612d33614617565b5b906000526020600020906003020160020160009054906101000a900460ff166003811115612d6557612d64613d29565b5b14612da5576040517f08c379a0000000000000000000000000000000000000000000000000000000008152600401612d9c9061486a565b60405180910390fd5b8373ffffffffffffffffffffffffffffffffffffffff16600b6000600c60008773ffffffffffffffffffffffffffffffffffffffff1673ffffffffffffffffffffffffffffffffffffffff1681526020019081526020016000208481548110612e1157612e10614617565b5b906000526020600020906003020160000154815260200190815260200160002060000160009054906101000a900473ffffffffffffffffffffffffffffffffffffffff1673ffffffffffffffffffffffffffffffffffffffff1603612eab576040517f08c379a0000000000000000000000000000000000000000000000000000000008152600401612ea29061518e565b60405180910390fd5b600d5442600c60008673ffffffffffffffffffffffffffffffffffffffff1673ffffffffffffffffffffffffffffffffffffffff1681526020019081526020016000208381548110612f0057612eff614617565b5b906000526020600020906003020160010154612f1c9190613cf5565b10612f5c576040517f08c379a0000000000000000000000000000000000000000000000000000000008152600401612f5390615220565b60405180910390fd5b612f68838260016129ca565b50612fbc565b8080612f79906146d8565b915050612c1c565b507f69f019efe5f581108e4063ef7158605f3cc5036390575e6d56d1a0dc2f722c6a8282604051612fb3929190613c9d565b60405180910390a15b505050565b8173ffffffffffffffffffffffffffffffffffffffff168373ffffffffffffffffffffffffffffffffffffffff160361302f576040517f08c379a00000000000000000000000000000000000000000000000000000000081526004016130269061528c565b60405180910390fd5b80600560008573ffffffffffffffffffffffffffffffffffffffff1673ffffffffffffffffffffffffffffffffffffffff16815260200190815260200160002060008473ffffffffffffffffffffffffffffffffffffffff1673ffffffffffffffffffffffffffffffffffffffff16815260200190815260200160002060006101000a81548160ff0219169083151502179055508173ffffffffffffffffffffffffffffffffffffffff168373ffffffffffffffffffffffffffffffffffffffff167f17307eab39ab6107e8899845ad3d59bd9653f200f220920489ca2b5937696c31836040516131209190613e27565b60405180910390a3505050565b6131388484846126d1565b613144848484846136ce565b613183576040517f08c379a000000000000000000000000000000000000000000000000000000000815260040161317a9061531e565b60405180910390fd5b50505050565b60008073ffffffffffffffffffffffffffffffffffffffff166131ab83612bdc565b73ffffffffffffffffffffffffffffffffffffffff1614159050919050565b6060600060028360026131dd919061533e565b6131e79190614d0f565b67ffffffffffffffff811115613200576131ff614116565b5b6040519080825280601f01601f1916602001820160405280156132325781602001600182028036833780820191505090505b5090507f30000000000000000000000000000000000000000000000000000000000000008160008151811061326a57613269614617565b5b60200101907effffffffffffffffffffffffffffffffffffffffffffffffffffffffffffff1916908160001a9053507f7800000000000000000000000000000000000000000000000000000000000000816001815181106132ce576132cd614617565b5b60200101907effffffffffffffffffffffffffffffffffffffffffffffffffffffffffffff1916908160001a9053506000600184600261330e919061533e565b6133189190614d0f565b90505b60018111156133b8577f3031323334353637383961626364656600000000000000000000000000000000600f86166010811061335a57613359614617565b5b1a60f81b82828151811061337157613370614617565b5b60200101907effffffffffffffffffffffffffffffffffffffffffffffffffffffffffffff1916908160001a905350600485901c9450806133b190615380565b905061331b565b50600084146133fc576040517f08c379a00000000000000000000000000000000000000000000000000000000081526004016133f3906153f5565b60405180910390fd5b8091505092915050565b60606000600161341584613855565b01905060008167ffffffffffffffff81111561343457613433614116565b5b6040519080825280601f01601f1916602001820160405280156134665781602001600182028036833780820191505090505b509050600082602001820190505b6001156134c9578080600190039150507f3031323334353637383961626364656600000000000000000000000000000000600a86061a8153600a85816134bd576134bc615415565b5b04945060008503613474575b819350505050919050565b606060008251036134f657604051806020016040528060008152509050613632565b60006040518060600160405280604081526020016156c360409139905060006003600285516135259190614d0f565b61352f9190615444565b600461353b919061533e565b67ffffffffffffffff81111561355457613553614116565b5b6040519080825280601f01601f1916602001820160405280156135865781602001600182028036833780820191505090505b509050600182016020820185865187015b808210156135f2576003820191508151603f8160121c168501518453600184019350603f81600c1c168501518453600184019350603f8160061c168501518453600184019350603f8116850151845360018401935050613597565b505060038651066001811461360e576002811461362157613629565b603d6001830353603d6002830353613629565b603d60018303535b50505080925050505b919050565b6136518282604051806020016040528060008152506139a8565b5050565b61365e82613189565b61369d576040517f08c379a0000000000000000000000000000000000000000000000000000000008152600401613694906154e7565b60405180910390fd5b806006600084815260200190815260200160002090816136bd9190614eda565b505050565b50505050565b50505050565b60006136ef8473ffffffffffffffffffffffffffffffffffffffff16613a03565b15613848578373ffffffffffffffffffffffffffffffffffffffff1663150b7a0261371861257b565b8786866040518563ffffffff1660e01b815260040161373a949392919061555c565b6020604051808303816000875af192505050801561377657506040513d601f19601f8201168201806040525081019061377391906155bd565b60015b6137f8573d80600081146137a6576040519150601f19603f3d011682016040523d82523d6000602084013e6137ab565b606091505b5060008151036137f0576040517f08c379a00000000000000000000000000000000000000000000000000000000081526004016137e79061531e565b60405180910390fd5b805181602001fd5b63150b7a0260e01b7bffffffffffffffffffffffffffffffffffffffffffffffffffffffff1916817bffffffffffffffffffffffffffffffffffffffffffffffffffffffff19161491505061384d565b600190505b949350505050565b600080600090507a184f03e93ff9f4daa797ed6e38ed64bf6a1f01000000000000000083106138b3577a184f03e93ff9f4daa797ed6e38ed64bf6a1f01000000000000000083816138a9576138a8615415565b5b0492506040810190505b6d04ee2d6d415b85acef810000000083106138f0576d04ee2d6d415b85acef810000000083816138e6576138e5615415565b5b0492506020810190505b662386f26fc10000831061391f57662386f26fc10000838161391557613914615415565b5b0492506010810190505b6305f5e1008310613948576305f5e100838161393e5761393d615415565b5b0492506008810190505b612710831061396d57612710838161396357613962615415565b5b0492506004810190505b60648310613990576064838161398657613985615415565b5b0492506002810190505b600a831061399f576001810190505b80915050919050565b6139b28383613a26565b6139bf60008484846136ce565b6139fe576040517f08c379a00000000000000000000000000000000000000000000000000000000081526004016139f59061531e565b60405180910390fd5b505050565b6000808273ffffffffffffffffffffffffffffffffffffffff163b119050919050565b600073ffffffffffffffffffffffffffffffffffffffff168273ffffffffffffffffffffffffffffffffffffffff1603613a95576040517f08c379a0000000000000000000000000000000000000000000000000000000008152600401613a8c90615636565b60405180910390fd5b613a9e81613189565b15613ade576040517f08c379a0000000000000000000000000000000000000000000000000000000008152600401613ad5906156a2565b60405180910390fd5b613aec6000838360016136c2565b613af581613189565b15613b35576040517f08c379a0000000000000000000000000000000000000000000000000000000008152600401613b2c906156a2565b60405180910390fd5b6001600360008473ffffffffffffffffffffffffffffffffffffffff1673ffffffffffffffffffffffffffffffffffffffff16815260200190815260200160002060008282540192505081905550816002600083815260200190815260200160002060006101000a81548173ffffffffffffffffffffffffffffffffffffffff021916908373ffffffffffffffffffffffffffffffffffffffff160217905550808273ffffffffffffffffffffffffffffffffffffffff16600073ffffffffffffffffffffffffffffffffffffffff167fddf252ad1be2c89b69c2b068fc378daa952ba7f163c4a11628f55a4df523b3ef60405160405180910390a4613c3f6000838360016136c8565b5050565b600073ffffffffffffffffffffffffffffffffffffffff82169050919050565b6000613c6e82613c43565b9050919050565b613c7e81613c63565b82525050565b6000819050919050565b613c9781613c84565b82525050565b6000604082019050613cb26000830185613c75565b613cbf6020830184613c8e565b9392505050565b7f4e487b7100000000000000000000000000000000000000000000000000000000600052601160045260246000fd5b6000613d0082613c84565b9150613d0b83613c84565b9250828203905081811115613d2357613d22613cc6565b5b92915050565b7f4e487b7100000000000000000000000000000000000000000000000000000000600052602160045260246000fd5b6000602082019050613d6d6000830184613c8e565b92915050565b6000604051905090565b600080fd5b600080fd5b60007fffffffff0000000000000000000000000000000000000000000000000000000082169050919050565b613dbc81613d87565b8114613dc757600080fd5b50565b600081359050613dd981613db3565b92915050565b600060208284031215613df557613df4613d7d565b5b6000613e0384828501613dca565b91505092915050565b60008115159050919050565b613e2181613e0c565b82525050565b6000602082019050613e3c6000830184613e18565b92915050565b600081519050919050565b600082825260208201905092915050565b60005b83811015613e7c578082015181840152602081019050613e61565b60008484015250505050565b6000601f19601f8301169050919050565b6000613ea482613e42565b613eae8185613e4d565b9350613ebe818560208601613e5e565b613ec781613e88565b840191505092915050565b60006020820190508181036000830152613eec8184613e99565b905092915050565b613efd81613c84565b8114613f0857600080fd5b50565b600081359050613f1a81613ef4565b92915050565b600060208284031215613f3657613f35613d7d565b5b6000613f4484828501613f0b565b91505092915050565b6000602082019050613f626000830184613c75565b92915050565b613f7181613c63565b8114613f7c57600080fd5b50565b600081359050613f8e81613f68565b92915050565b60008060408385031215613fab57613faa613d7d565b5b6000613fb985828601613f7f565b9250506020613fca85828601613f0b565b9150509250929050565b600080600060608486031215613fed57613fec613d7d565b5b6000613ffb86828701613f7f565b935050602061400c86828701613f7f565b925050604061401d86828701613f0b565b9150509250925092565b600060808201905061403c6000830187613c75565b6140496020830186613c8e565b818103604083015261405b8185613e99565b905061406a6060830184613e18565b95945050505050565b60006020828403121561408957614088613d7d565b5b600061409784828501613f7f565b91505092915050565b6140a981613e0c565b81146140b457600080fd5b50565b6000813590506140c6816140a0565b92915050565b600080604083850312156140e3576140e2613d7d565b5b60006140f185828601613f7f565b9250506020614102858286016140b7565b9150509250929050565b600080fd5b600080fd5b7f4e487b7100000000000000000000000000000000000000000000000000000000600052604160045260246000fd5b61414e82613e88565b810181811067ffffffffffffffff8211171561416d5761416c614116565b5b80604052505050565b6000614180613d73565b905061418c8282614145565b919050565b600067ffffffffffffffff8211156141ac576141ab614116565b5b6141b582613e88565b9050602081019050919050565b82818337600083830152505050565b60006141e46141df84614191565b614176565b905082815260208101848484011115614200576141ff614111565b5b61420b8482856141c2565b509392505050565b600082601f8301126142285761422761410c565b5b81356142388482602086016141d1565b91505092915050565b6000806000806080858703121561425b5761425a613d7d565b5b600061426987828801613f7f565b945050602061427a87828801613f7f565b935050604061428b87828801613f0b565b925050606085013567ffffffffffffffff8111156142ac576142ab613d82565b5b6142b887828801614213565b91505092959194509250565b600080604083850312156142db576142da613d7d565b5b60006142e985828601613f7f565b92505060206142fa85828601613f7f565b9150509250929050565b6004811061431557614314613d29565b5b50565b600081905061432682614304565b919050565b600061433682614318565b9050919050565b6143468161432b565b82525050565b60006060820190506143616000830186613c8e565b61436e6020830185613c8e565b61437b604083018461433d565b949350505050565b600067ffffffffffffffff82111561439e5761439d614116565b5b6143a782613e88565b9050602081019050919050565b60006143c76143c284614383565b614176565b9050828152602081018484840111156143e3576143e2614111565b5b6143ee8482856141c2565b509392505050565b600082601f83011261440b5761440a61410c565b5b813561441b8482602086016143b4565b91505092915050565b60008060006060848603121561443d5761443c613d7d565b5b600061444b86828701613f7f565b935050602061445c86828701613f0b565b925050604084013567ffffffffffffffff81111561447d5761447c613d82565b5b614489868287016143f6565b9150509250925092565b7f4e487b7100000000000000000000000000000000000000000000000000000000600052602260045260246000fd5b600060028204905060018216806144da57607f821691505b6020821081036144ed576144ec614493565b5b50919050565b7f4552433732313a20617070726f76616c20746f2063757272656e74206f776e6560008201527f7200000000000000000000000000000000000000000000000000000000000000602082015250565b600061454f602183613e4d565b915061455a826144f3565b604082019050919050565b6000602082019050818103600083015261457e81614542565b9050919050565b7f4552433732313a20617070726f76652063616c6c6572206973206e6f7420746f60008201527f6b656e206f776e6572206f7220617070726f76656420666f7220616c6c000000602082015250565b60006145e1603d83613e4d565b91506145ec82614585565b604082019050919050565b60006020820190508181036000830152614610816145d4565b9050919050565b7f4e487b7100000000000000000000000000000000000000000000000000000000600052603260045260246000fd5b7f4f7264657220737461747573206973206e6f7420444953505554455f4f50454e60008201527f4544210000000000000000000000000000000000000000000000000000000000602082015250565b60006146a2602383613e4d565b91506146ad82614646565b604082019050919050565b600060208201905081810360008301526146d181614695565b9050919050565b60006146e382613c84565b91507fffffffffffffffffffffffffffffffffffffffffffffffffffffffffffffffff820361471557614714613cc6565b5b600182019050919050565b7f4552433732313a2063616c6c6572206973206e6f7420746f6b656e206f776e6560008201527f72206f7220617070726f76656400000000000000000000000000000000000000602082015250565b600061477c602d83613e4d565b915061478782614720565b604082019050919050565b600060208201905081810360008301526147ab8161476f565b9050919050565b7f4552433732313a20696e76616c696420746f6b656e2049440000000000000000600082015250565b60006147e8601883613e4d565b91506147f3826147b2565b602082019050919050565b60006020820190508181036000830152614817816147db565b9050919050565b7f4f7264657220737461747573206973206e6f742050454e44494e472100000000600082015250565b6000614854601c83613e4d565b915061485f8261481e565b602082019050919050565b6000602082019050818103600083015261488381614847565b9050919050565b7f596f752063616e2774206f70656e20646973707574652061667465722032382060008201527f6461797321000000000000000000000000000000000000000000000000000000602082015250565b60006148e6602583613e4d565b91506148f18261488a565b604082019050919050565b60006020820190508181036000830152614915816148d9565b9050919050565b7f4552433732313a2061646472657373207a65726f206973206e6f74206120766160008201527f6c6964206f776e65720000000000000000000000000000000000000000000000602082015250565b6000614978602983613e4d565b91506149838261491c565b604082019050919050565b600060208201905081810360008301526149a78161496b565b9050919050565b7f4552433732314d657461646174613a2055524920717565727920666f72206e6f60008201527f6e6578697374656e7420746f6b656e0000000000000000000000000000000000602082015250565b6000614a0a602f83613e4d565b9150614a15826149ae565b604082019050919050565b60006020820190508181036000830152614a39816149fd565b9050919050565b600081905092915050565b7f7b226e616d654f664974656d223a220000000000000000000000000000000000600082015250565b6000614a81600f83614a40565b9150614a8c82614a4b565b600f82019050919050565b60008190508160005260206000209050919050565b60008154614ab9816144c2565b614ac38186614a40565b94506001821660008114614ade5760018114614af357614b26565b60ff1983168652811515820286019350614b26565b614afc85614a97565b60005b83811015614b1e57815481890152600182019150602081019050614aff565b838801955050505b50505092915050565b7f222c2273656c6c6572223a220000000000000000000000000000000000000000600082015250565b6000614b65600c83614a40565b9150614b7082614b2f565b600c82019050919050565b6000614b8682613e42565b614b908185614a40565b9350614ba0818560208601613e5e565b80840191505092915050565b7f222c227072696365223a22000000000000000000000000000000000000000000600082015250565b6000614be2600b83614a40565b9150614bed82614bac565b600b82019050919050565b7f227d000000000000000000000000000000000000000000000000000000000000600082015250565b6000614c2e600283614a40565b9150614c3982614bf8565b600282019050919050565b6000614c4f82614a74565b9150614c5b8286614aac565b9150614c6682614b58565b9150614c728285614b7b565b9150614c7d82614bd5565b9150614c898284614b7b565b9150614c9482614c21565b9150819050949350505050565b7f646174613a6170706c69636174696f6e2f6a736f6e3b6261736536342c000000600082015250565b6000614cd7601d83614a40565b9150614ce282614ca1565b601d82019050919050565b6000614cf882614cca565b9150614d048284614b7b565b915081905092915050565b6000614d1a82613c84565b9150614d2583613c84565b9250828201905080821115614d3d57614d3c613cc6565b5b92915050565b60006020601f8301049050919050565b600082821b905092915050565b600060088302614d907fffffffffffffffffffffffffffffffffffffffffffffffffffffffffffffffff82614d53565b614d9a8683614d53565b95508019841693508086168417925050509392505050565b6000819050919050565b6000614dd7614dd2614dcd84613c84565b614db2565b613c84565b9050919050565b6000819050919050565b614df183614dbc565b614e05614dfd82614dde565b848454614d60565b825550505050565b600090565b614e1a614e0d565b614e25818484614de8565b505050565b5b81811015614e4957614e3e600082614e12565b600181019050614e2b565b5050565b601f821115614e8e57614e5f81614a97565b614e6884614d43565b81016020851015614e77578190505b614e8b614e8385614d43565b830182614e2a565b50505b505050565b600082821c905092915050565b6000614eb160001984600802614e93565b1980831691505092915050565b6000614eca8383614ea0565b9150826002028217905092915050565b614ee382613e42565b67ffffffffffffffff811115614efc57614efb614116565b5b614f0682546144c2565b614f11828285614e4d565b600060209050601f831160018114614f445760008415614f32578287015190505b614f3c8582614ebe565b865550614fa4565b601f198416614f5286614a97565b60005b82811015614f7a57848901518255600182019150602085019450602081019050614f55565b86831015614f975784890151614f93601f891682614ea0565b8355505b6001600288020188555050505b505050505050565b6000608082019050614fc16000830187613c8e565b614fce6020830186613c75565b614fdb6040830185613c8e565b8181036060830152614fed8184613e99565b905095945050505050565b7f4552433732313a207472616e736665722066726f6d20696e636f72726563742060008201527f6f776e6572000000000000000000000000000000000000000000000000000000602082015250565b6000615054602583613e4d565b915061505f82614ff8565b604082019050919050565b6000602082019050818103600083015261508381615047565b9050919050565b7f4552433732313a207472616e7366657220746f20746865207a65726f2061646460008201527f7265737300000000000000000000000000000000000000000000000000000000602082015250565b60006150e6602483613e4d565b91506150f18261508a565b604082019050919050565b60006020820190508181036000830152615115816150d9565b9050919050565b7f596f752063616e277420636f6e6669726d2074686973206f726465722c20626560008201527f636175736520796f7520617265206e6f74207468652073656c6c657221000000602082015250565b6000615178603d83613e4d565b91506151838261511c565b604082019050919050565b600060208201905081810360008301526151a78161516b565b9050919050565b7f4e6f7420656e6f7567682074696d65206861732070617373656420746f20636f60008201527f6e6669726d2074686973206f7264657221000000000000000000000000000000602082015250565b600061520a603183613e4d565b9150615215826151ae565b604082019050919050565b60006020820190508181036000830152615239816151fd565b9050919050565b7f4552433732313a20617070726f766520746f2063616c6c657200000000000000600082015250565b6000615276601983613e4d565b915061528182615240565b602082019050919050565b600060208201905081810360008301526152a581615269565b9050919050565b7f4552433732313a207472616e7366657220746f206e6f6e20455243373231526560008201527f63656976657220696d706c656d656e7465720000000000000000000000000000602082015250565b6000615308603283613e4d565b9150615313826152ac565b604082019050919050565b60006020820190508181036000830152615337816152fb565b9050919050565b600061534982613c84565b915061535483613c84565b925082820261536281613c84565b9150828204841483151761537957615378613cc6565b5b5092915050565b600061538b82613c84565b91506000820361539e5761539d613cc6565b5b600182039050919050565b7f537472696e67733a20686578206c656e67746820696e73756666696369656e74600082015250565b60006153df602083613e4d565b91506153ea826153a9565b602082019050919050565b6000602082019050818103600083015261540e816153d2565b9050919050565b7f4e487b7100000000000000000000000000000000000000000000000000000000600052601260045260246000fd5b600061544f82613c84565b915061545a83613c84565b92508261546a57615469615415565b5b828204905092915050565b7f45524337323155524953746f726167653a2055524920736574206f66206e6f6e60008201527f6578697374656e7420746f6b656e000000000000000000000000000000000000602082015250565b60006154d1602e83613e4d565b91506154dc82615475565b604082019050919050565b60006020820190508181036000830152615500816154c4565b9050919050565b600081519050919050565b600082825260208201905092915050565b600061552e82615507565b6155388185615512565b9350615548818560208601613e5e565b61555181613e88565b840191505092915050565b60006080820190506155716000830187613c75565b61557e6020830186613c75565b61558b6040830185613c8e565b818103606083015261559d8184615523565b905095945050505050565b6000815190506155b781613db3565b92915050565b6000602082840312156155d3576155d2613d7d565b5b60006155e1848285016155a8565b91505092915050565b7f4552433732313a206d696e7420746f20746865207a65726f2061646472657373600082015250565b6000615620602083613e4d565b915061562b826155ea565b602082019050919050565b6000602082019050818103600083015261564f81615613565b9050919050565b7f4552433732313a20746f6b656e20616c7265616479206d696e74656400000000600082015250565b600061568c601c83613e4d565b915061569782615656565b602082019050919050565b600060208201905081810360008301526156bb8161567f565b905091905056fe4142434445464748494a4b4c4d4e4f505152535455565758595a6162636465666768696a6b6c6d6e6f707172737475767778797a303132333435363738392b2fa26469706673582212201a51a4acb4e0d642b88859914dfad3f0c3ea28a59fc8c5e9fc5e25fe4affa8ae64736f6c63430008120033",
  "linkReferences": {},
  "deployedLinkReferences": {}
}